:020000001028C6
:10000800FE00030EF0000408F1000A08F200831253
:1000180003137F08F300932A11288523B40086234D
:10002800B5008723B6008823B700A001A101A2016B
:10003800A301A401A501A601A701A801A901F8012E
:10004800F9018301802B422A04301A23031C562805
:1000580083120313AA01AA0A0030EE2283120313A3
:10006800AA010130EE2283120313AA010230EE2204
:10007800083083120313B6000030B7000130A8001F
:100088000030A90004301A23031C080063237708F2
:1000980083120313A7007608A6007508A500740844
:1000A800A400462803301A23031C84288312031350
:1000B800AA010030EE2283120313AA010130EE22B6
:1000C80083120313AA01AA0A0230EE22093083120E
:1000D8000313B6000030B7000130A8000030A900B3
:1000E80004301A23031C08006323770883120313C0
:1000F800A7007608A6007508A5007408A40074284F
:10010800F4010030C22283120313B101B10A013095
:100118005522031896280230552203189628831270
:100128000313B101831203133108AC002C08AA0091
:100138000030EE2283120313B201B20A78230318A7
:10014800AC28053055220318AC2883120313B201DA
:10015800831203133208AC002C08AA000130EE22E7
:1001680083120313B301B30A033055220318C328BB
:10017800043055220318C32883120313B3018312D2
:1001880003133308AC002C08AA000230EE22080042
:10019800603083120313AC001330AD000030AE00A2
:1001A8000030AF002408AC0725080318250FDD2808
:1001B800DE28AD0726080318260FE328E428AE0733
:1001C80027080318270AAF076323831203132F088E
:1001D8007702031DF9282E087602031DF9282D0839
:1001E8007502031DF9282C087402031C0D2902301E
:1001F800A8000030A900AA010030EE2283120313E0
:10020800AA010130EE2283120313AA01AA0A0230BE
:10021800EE22F4010030C22283120313AA01AA0AB3
:100228000030EE226323B03083120313AC00093090
:10023800AD000030AE000030AF002408AC07250840
:100248000318250F28292929AD0726080318260F82
:100258002E292F29AE0727080318270AAF07770882
:100268002F02031D412976082E02031D4129750816
:100278002D02031D412974082C0203184529013059
:1002880046290030B0003008AA000130EE2283125F
:100298000313AA010230EE2208007823031C662902
:1002A800033083120313A8000030A90063237708E2
:1002B80083120313A7007608A6007508A500740822
:1002C800A400080005305522031C7E29043083123F
:1002D800031336063704031975293708B50036089D
:1002E800B4000430B6000030B7000430A800003075
:1002F800A900080002305522031C8D29033055221D
:10030800031C8D29053083120313A8000030A900AF
:10031800080002305522031C982906308312031363
:10032800A8000030A900080003305522031CA329A7
:10033800073083120313A8000030A9000800013019
:100348005522031CAE29083083120313A80000307D
:10035800A900080004305522031CB929093083126A
:100368000313A8000030A9000800831203133708FC
:10037800A9003608A80008006323E8308312031395
:10038800AC000330AD000030AE000030AF002408F0
:10039800AC0725080318250FD229D329AD0726084D
:1003A8000318260FD829D929AE0727080318270AC2
:1003B800AF0777082F02031DEB2976082E02031DCD
:1003C800EB2975082D02031DEB2974082C0203186C
:1003D800F2290230A8000030A9000800F401F40353
:1003E800FF30C22208000930831203133406350493
:1003F800031D002A0130012A0030FF3A013EAC00FB
:100408002C08F400083034063504031D0D2A013089
:100418000E2A0030FF3A013EC2220800F401F40A15
:100428000130C2220800F401F40A0030C222083068
:1004380083120313B6000030B7000800F40101303E
:10044800C222093083120313B6000030B700080037
:10045800F401F40AFF30C222083083120313B600F5
:100468000030B7000800F401F4030130C22209305B
:1004780083120313B6000030B70008008312031379
:100488002908003A0319492A542A280884000A30FE
:1004980004020318080003308A006E300407820043
:1004A8000800F4007403031D612A83120313851CDA
:1004B8005F2A031008000314080002307406031DA5
:1004C8006D2A83120313051C6B2A031008000314FA
:1004D800080003307406031D792A83120313051ECE
:1004E800772A031008000314080004307406031D5B
:1004F800852A83120313851E832A03100800031418
:10050800080005307406031D912A83120313061D83
:100518008F2A0310080003140800031008000B1D9D
:10052800B72A0030F8070318F90A0130F90727300D
:100538007902103003197802031CB72A0130A0078A
:10054800003003180130A107003003180130A2075A
:10055800003003180130A3071030F8022730031CBD
:10056800F903F9020B117308FF0072088A00710879
:100578008400700E8300FE0E7E0E0900F500F51F44
:10058800C92A831203130515CC2A831203130511F4
:100598007508803A7F3E031CD52A831203138515FC
:1005A800D82A831203138511F41FDE2A831203133A
:1005B8000614E12A8312031306107408803A7F3E5A
:1005C800031CEA2A831203138614080083120313F8
:1005D8008610080083120313AB002B08031DFE2AA4
:1005E8002A080319FB2A831203130617FE2A83120B
:1005F800031306132B03031D0B2B2A080319082BBF
:100608008312031386170B2B8312031386130230EE
:100618002B06031D08002A080319162B831203133F
:10062800051708008312031305130800F4000430AB
:100638007406031D272B83120313061E252B031094
:1006480008000314080003307406031D332B8312BB
:100658000313861E312B031008000314080003102F
:100668000800831603138514051405168516061548
:1006780085170616861686110613861305130610A7
:1006880086100511851108000730831203139F0097
:10069800831603139F01E0308B000B308E008730E8
:1006A8008100080068308316031392003F308312DC
:1006B800031395000F30970005309200080083124D
:1006C80003132308F7002208F6002108F500200884
:1006D800F40008002828CC285129C029F729122A13
:1006E800172A222A2C2A372A83120313851F7E2BC6
:1006F8000310080003140800352356234823272035
:0A070800832B093400340934003457
:02400E0010FFA1
:00000001FF
